:100000000C9463000C94AE030C94DB030C948B00F3
:100010000C948B000C948B000C948B000C948B0034
:100020000C948B000C948B000C948B000C948B0024
:100030000C948B000C9457060C948B000C948B0042
:100040000C9408040C948B000C948D000C94C80044
:100050000C948B000C948B000C948B000C948B00F4
:100060000C948B000C948B000000000024002700EF
:100070002A0000000000250028002B0000000000DE
:1000800023002600290004040404040404040202DA
:100090000202020203030303030301020408102007
:1000A0004080010204081020010204081020000012
:1000B0000007000201000003040600000000000029
:1000C000000034028A0211241FBECFEFD8E0DEBF49
:1000D000CDBF11E0A0E0B1E0EEE4F2E102C0059096
:1000E0000D92A435B107D9F712E0A4E5B1E001C043
:1000F0001D92A532B107E1F710E0C6ECD0E004C0D4
:100100002297FE010E942109C23CD107C9F70E9433
:1001100069050C9425090C9400001F920F920FB6EC
:100120000F9211242F933F934F938F939F93EF93AD
:10013000FF938091C00082FD1DC04091C6002091B8
:100140009401309195012F5F3F4F2F733070809154
:100150009601909197012817390771F0E091940169
:10016000F0919501EC5AFE4F408330939501209316
:10017000940102C08091C600FF91EF919F918F91F1
:100180004F913F912F910F900FBE0F901F90189598
:100190001F920F920FB60F9211242F933F938F93BC
:1001A0009F93EF93FF932091D8013091D9018091D3
:1001B000DA019091DB012817390731F48091C100F1
:1001C0008F7D8093C10014C0E091DA01F091DB01D2
:1001D000E856FE4F20818091DA019091DB01019673
:1001E0008F7390709093DB018093DA012093C600A7
:1001F000FF91EF919F918F913F912F910F900FBEA3
:100200000F901F901895AF92BF92DF92EF92FF92DE
:100210000F931F93CF93DF93EC017A018B01DD24C1
:10022000403081EE580780E0680780E0780711F0E1
:10023000DD24D39491E0A92EB12CEC89FD89DD2039
:1002400069F0C50108A002C0880F991F0A94E2F75F
:10025000808360E079E08DE390E005C0108260E883
:1002600074E88EE190E0A80197010E94FD082150FA
:10027000304040405040569547953795279580E14E
:100280002030380720F0DD2011F0DD24D6CFE889BA
:10029000F9893083EA89FB89208319A2EE89FF89D5
:1002A000408121E030E0C9010C8C02C0880F991F09
:1002B0000A94E2F7482B4083EE89FF894081C90107
:1002C0000D8C02C0880F991F0A94E2F7482B4083D7
:1002D000EE89FF894081C9010E8C02C0880F991FE9
:1002E0000A94E2F7482B4083EE89FF8980810F8CC6
:1002F00002C0220F331F0A94E2F72095282320839F
:10030000DF91CF911F910F91FF90EF90DF90BF9001
:10031000AF900895DC011C96ED91FC911D97E05C77
:10032000FF4F2191319180819181281B390B2F73CF
:100330003070C9010895DC011C96ED91FC911D9768
:10034000E05CFF4F20813181E054F040DF01AE5B83
:10035000BF4F8D919C9111972817390719F42FEFF2
:100360003FEF07C08D919C91E80FF91F8081282FE6
:1003700030E0C9010895DC011C96ED91FC911D97B8
:10038000E05CFF4F20813181E054F040DF01AE5B43
:10039000BF4F8D919C9111972817390719F42FEFB2
:1003A0003FEF10C08D919C911197E80FF91F2081AC
:1003B0008D919C91119701968F73907011969C93DB
:1003C0008E9330E0C9010895DC0191968C9191974C
:1003D000882339F05496ED91FC915597808186FFE2
:1003E000F9CF91961C920895CF93DF93EC01EE859F
:1003F000FF85E05CFF4F20813181E054F0402F5FAA
:100400003F4F2F733070DF01AE5BBF4F8D919C91DA
:10041000119728173907D1F3E05CFF4F8081918154
:10042000E054F040E80FF91F6083EE85FF85E05C43
:10043000FF4F31832083EE89FF89208181E090E0A6
:100440000F8C02C0880F991F0A94E2F7282B208393
:1004500081E089A3EC89FD8980818064808381E0CB
:1004600090E0DF91CF9108951092DF011092DE01AC
:1004700088EE93E0A0E0B0E08093E0019093E1018A
:10048000A093E201B093E3018FE391E09093DD014B
:100490008093DC0184E591E09093E9018093E80189
:1004A00088E991E09093EB018093EA0185EC90E07C
:1004B0009093ED018093EC0184EC90E09093EF0138
:1004C0008093EE0180EC90E09093F1018093F00135
:1004D00081EC90E09093F3018093F20182EC90E044
:1004E0009093F5018093F40186EC90E09093F701EE
:1004F0008093F60184E08093F80183E08093F90112
:1005000087E08093FA0185E08093FB0181E080938E
:10051000FC0108958FE491E09093FF018093FE0128
:100520001092000210920102109202021092030235
:1005300008958F929F92AF92BF92CF92DF92EF92E7
:10054000FF920F931F93CF93DF934C016B017C01BC
:10055000AA24BB24C0E0D0E0C601F70162814AE0D2
:1005600050E00E949C038C01C6016EE20E940503CC
:10057000080F191FA00EB11E21960894E11CF11C52
:10058000C330D10549F7C601F40165814AE050E066
:100590000E949C039501280F391FC901DF91CF915B
:1005A0001F910F91FF90EF90DF90CF90BF90AF9091
:1005B0009F908F900895CF92DF92EF92FF920F93CA
:1005C0001F93CF93DF937C016B018A01C0E0D0E0E1
:1005D0000FC0D6016D916D01D701ED91FC91019095
:1005E000F081E02DC7010995C80FD91F01501040B7
:1005F0000115110571F7CE01DF91CF911F910F9178
:10060000FF90EF90DF90CF900895DC01ED91FC9189
:100610000190F081E02D09950895CF93DF93EC01CF
:100620006115710519F420E030E00FC0DB010D9079
:100630000020E9F71197A61BB70BE881F98102802A
:10064000F381E02DAD0109959C01C901DF91CF91A6
:1006500008954F925F927F928F929F92AF92BF9236
:10066000CF92DF92EF92FF920F931F93DF93CF937E
:10067000CDB7DEB7A1970FB6F894DEBF0FBECDBFE2
:100680002C01742ECB01223008F42AE019A231E2A9
:10069000C32ED12CCC0EDD1E822E9924AA24BB247D
:1006A000672D752FA50194010E94FD0879018A012B
:1006B000C801B701A50194010E94DE08472D461B21
:1006C0000894C108D1084A3014F4405D01C0495C67
:1006D000F6014083E114F1040105110521F07E2C9F
:1006E0005F2DC801DDCFC201B6010E940D03A196A6
:1006F0000FB6F894DEBF0FBECDBFCF91DF911F9133
:100700000F91FF90EF90DF90CF90BF90AF909F90B0
:100710008F907F905F904F900895DC0121153105F7
:1007200041F4ED91FC910190F081E02D642F099549
:1007300008950E9429030895EF92FF920F931F934B
:100740009A01E62EFF2400E010E0B801A7010E9404
:100750008D031F910F91FF90EF9008951F920F92BC
:100760000FB60F9211242F933F934F935F936F9384
:100770007F938F939F93AF93BF93EF93FF9380915A
:10078000040290910502892B29F0E0910402F09176
:1007900005020995FF91EF91BF91AF919F918F91C4
:1007A0007F916F915F914F913F912F910F900FBE6D
:1007B0000F901F9018951F920F920FB60F92112451
:1007C0002F933F934F935F936F937F938F939F9359
:1007D000AF93BF93EF93FF9380910602909107022E
:1007E000892B29F0E0910602F09107020995FF910B
:1007F000EF91BF91AF919F918F917F916F915F9199
:100800004F913F912F910F900FBE0F901F90189511
:100810001F920F920FB60F9211242F933F938F9335
:100820009F93AF93BF9380910C0290910D02A09182
:100830000E02B0910F02309110020196A11DB11D60
:10084000232F2D5F2D3720F02D570196A11DB11DAF
:100850002093100280930C0290930D02A0930E023D
:10086000B0930F028091080290910902A0910A02B0
:10087000B0910B020196A11DB11D809308029093C7
:100880000902A0930A02B0930B02BF91AF919F910E
:100890008F913F912F910F900FBE0F901F90189541
:1008A000789484B5826084BD84B5816084BD85B54B
:1008B000826085BD85B5816085BDEEE6F0E0808112
:1008C00081608083E1E8F0E0108280818260808333
:1008D000808181608083E0E8F0E0808181608083B6
:1008E000E1EBF0E0808184608083E0EBF0E08081E8
:1008F00081608083EAE7F0E080818460808380818A
:100900008260808380818160808380818068808331
:100910001092C1000895982F8E3008F09E50977065
:10092000809119018295880F880F807C892B809394
:100930007C0080917A00806480937A0080917A00B4
:1009400086FDFCCF2091780040917900942F80E0C3
:1009500030E0282B392BC9010895CF93DF93482F1E
:1009600050E0CA0186569F4FFC0134914A575F4FB1
:10097000FA018491882369F190E0880F991FFC01A6
:10098000E859FF4FA591B491FC01EE58FF4FC59176
:10099000D491662351F42FB7F8948C91932F9095AE
:1009A00089238C93888189230BC0623061F42FB72F
:1009B000F8948C91932F909589238C938881832B25
:1009C00088832FBF06C09FB7F8948C91832B8C939C
:1009D0009FBFDF91CF910895482F50E0CA01825503
:1009E0009F4FFC012491CA0186569F4FFC019491B0
:1009F0004A575F4FFA013491332309F440C0222350
:100A000051F1233071F0243028F42130A1F022304C
:100A100011F514C02630B1F02730C1F02430D9F4DC
:100A200004C0809180008F7703C0809180008F7D0B
:100A30008093800010C084B58F7702C084B58F7D0D
:100A400084BD09C08091B0008F7703C08091B00051
:100A50008F7D8093B000E32FF0E0EE0FFF1FEE5884
:100A6000FF4FA591B4912FB7F894662321F48C9190
:100A70009095892302C08C91892B8C932FBF089568
:100A8000862F60E00E94AD0408958CED91E00E94F5
:100A9000DB0208950F931F93CF93DF938A01E9013F
:100AA0008CED91E00E94BB01F801808319821882CD
:100AB0008F5F9F4F21F081E090E099838883DF91E1
:100AC000CF911F910F9108958CED91E00E94030149
:100AD00008950E94500480E090E040E855E260E014
:100AE00070E00E94640580E090E060E071E04AE11F
:100AF00050E00E9445050E94850683E89FEF909391
:100B000085008093840080916F008E7F80936F00BA
:100B1000809180008C7F8093800080918100877E0F
:100B20008093810080918100846080938100809116
:100B300081008C7F8093810080916F008160809321
:100B40006F00E0915101F091520180819181892BD8
:100B5000E1F30E948406F89480E090E00895BF924B
:100B6000CF92DF92EF92FF920F931F93DF93CF9379
:100B700000D00F92CDB7DEB7209113022F5F2093E4
:100B80001302215049F081E090E09093120280938B
:100B90001102209313027EC07894E0915101F091EC
:100BA000520120E084819581892B09F421E02A8378
:100BB00010E086819781892B09F411E01B830E9444
:100BC00059070E948106F894809113028150809306
:100BD00013028A81882359F080911702282F2F5FF2
:100BE00020931702882319F0E1E0F0E00CC01123F4
:100BF000A1F080911802282F2F5F209318028823DC
:100C000061F0E2E0F0E081E090E0909312028093E6
:100C10001102EA5EFD4F2150208304E112E097E1CA
:100C2000C92E92E0D92E81E0E82EF12CBB24B3949A
:100C3000F8018081882371F5F60180818823F1F025
:100C4000F801B0827894F1E0EF16F10429F082E027
:100C5000E816F10451F405C00E94C5060E94820600
:100C600004C00E94AC060E948306F894F6018081BD
:100C700081508083F8018081815080830894E11C39
:100C8000F11C0F5F1F4F0894C11CD11CF3E0EF163D
:100C9000F10471F60F900F900F90CF91DF911F919B
:100CA0000F91FF90EF90DF90CF90BF9008951F922B
:100CB0000F920FB60F9211242F933F934F935F9390
:100CC0006F937F938F939F93AF93BF93EF93FF9314
:100CD00083E89FEF90938500809384000E94AF0586
:100CE000FF91EF91BF91AF919F918F917F916F9104
:100CF0005F914F913F912F910F900FBE0F901F90DA
:100D00001895089508950895089588E0EDE1F2E0BA
:100D1000DF011D928A95E9F71092190210921A02CA
:100D200010921B0210921C026091320170913301EB
:100D300080913401909135010E94400580911A0103
:100D400061E00E94AD041092190210921A021092F2
:100D50001B0210921C020895DF93CF930F92CDB720
:100D6000DEB7809132010E948B04898380911E013D
:100D700090911F01BE016F5F7F4F41E050E00E94E4
:100D800045050F90CF91DF9108956F927F928F92DA
:100D90009F92AF92BF92CF92DF92EF92FF920F930A
:100DA0001F93E0901902F0901A0200911B0210911B
:100DB0001C02C801B7010E942A083B014C01209186
:100DC0002A0130912B0140912C0150912D010E945C
:100DD000F80788235CF417FD09C0A0902201B090A9
:100DE0002301C0902401D09025010AC00F2EF0E00D
:100DF000AF2EF0E0BF2EF0E0CF2EF0E0DF2EF02D92
:100E0000609126017091270180912801909129011C
:100E100020E030E040E85FE30E9493079B01AC01D3
:100E2000C401B3010E94DA0888234CF01092190221
:100E300010921A0210921B0210921C020DC008940C
:100E4000E11CF11C011D111DE0921902F0921A0221
:100E500000931B0210931C02C601B50120E030E094
:100E600040E853E40E94F80787FD02C06FEF10C00E
:100E7000C601B50120E030E040E050E00E94DA0811
:100E800087FF02C060E004C0C601B5010E94FC07F4
:100E900080911A010E94EC041F910F91FF90EF9036
:100EA000DF90CF90BF90AF909F908F907F906F908A
:100EB0000895DF93CF9300D00F92CDB7DEB7809126
:100EC00021029091220201969093220280932102A6
:100ED000C29720F0109222021092210280912302E8
:100EE0009091240201969093240280932302845FC0
:100EF000914020F0109224021092230260913A0156
:100F0000809136019091370170E0AE014F5F5F4FE5
:100F10009E012E5F3F4F0E944A050F900F900F9049
:100F2000CF91DF9108955058BB27AA270ED008C152
:100F3000F9D030F0FED020F031F49F3F11F41EF4D0
:100F4000EEC00EF4E095E7FBE4C0E92F0AD180F390
:100F5000BA17620773078407950718F071F49EF5B6
:100F600022C10EF4E0950B2EBA2FA02D0B01B90172
:100F700090010C01CA01A0011124FF27591B99F00F
:100F8000593F50F4503E68F11A16F040A22F232F1B
:100F9000342F4427585FF3CF469537952795A7956B
:100FA000F0405395C9F77EF41F16BA0B620B730B12
:100FB000840BBAF09150A1F0FF0FBB1F661F771F83
:100FC000881FC2F70EC0BA0F621F731F841F48F438
:100FD000879577956795B795F7959E3F08F0B3CFBE
:100FE0009395880F08F09927EE0F979587950895A8
:100FF0006CD008F481E00895BCD088F09F5790F041
:10100000B92F9927B751A0F0D1F0660F771F881F2D
:10101000991F1AF0BA95C9F712C0B13081F0C3D048
:10102000B1E00895C0C0672F782F8827B85F39F0E6
:10103000B93FCCF3869577956795B395D9F73EF48C
:1010400090958095709561957F4F8F4F9F4F089534
:10105000E89409C097FB3EF4909580957095619552
:101060007F4F8F4F9F4F9923A9F0F92F96E9BB2708
:101070009395F695879577956795B795F111F8CF84
:10108000FAF4BB0F11F460FF1BC06F5F7F4F8F4FEF
:101090009F4F16C0882311F096E911C0772321F0E5
:1010A0009EE8872F762F05C0662371F096E8862F7D
:1010B00070E060E02AF09A95660F771F881FDAF7D4
:1010C000880F9695879597F90895990F0008550F01
:1010D000AA0BE0E8FEEF16161706E807F907C0F0BE
:1010E00012161306E407F50798F0621B730B840BC6
:1010F000950B39F40A2661F0232B242B252B21F4A0
:1011000008950A2609F4A140A6958FEF811D811D3F
:10111000089597F99F6780E870E060E008959FEF79
:1011200080EC089500240A9416161706180609067E
:10113000089500240A94121613061406050608954D
:10114000092E0394000C11F4882352F0BB0F40F4D5
:10115000BF2B11F460FF04C06F5F7F4F8F4F9F4F15
:10116000089557FD9058440F551F59F05F3F71F097
:101170004795880F97FB991F61F09F3F79F08795FE
:101180000895121613061406551FF2CF4695F1DF87
:1011900008C0161617061806991FF1CF8695710517
:1011A000610508940895E894BB2766277727CB014B
:1011B00097F908958ADF08F48FEF0895629FD001B0
:1011C000739FF001829FE00DF11D649FE00DF11D02
:1011D000929FF00D839FF00D749FF00D659FF00DB1
:1011E0009927729FB00DE11DF91F639FB00DE11D9E
:1011F000F91FBD01CF0111240895A1E21A2EAA1BE7
:10120000BB1BFD010DC0AA1FBB1FEE1FFF1FA217B6
:10121000B307E407F50720F0A21BB30BE40BF50BB3
:10122000661F771F881F991F1A9469F7609570953C
:10123000809590959B01AC01BD01CF010895EE0F03
:0E124000FF1F0590F491E02D0994F894FFCF64
:10124E002A2A2A7374617274696E67207468652025
:10125E006D6F64656C2A2A2A00010D0000000000E3
:10126E0000000000803F000020410000A040000070
:10127E00000000000000000000000100000000F46B
:10128E0001DB028A01BB019B01E401000000009911
:04129E00021D02002B
:00000001FF
